S01A000046756E6374696F6E2047656E657261746F722E73726563FD
S113000019C020C01FC01EC01DC01CC01BC01AC008
S113001019C018C017C016C015C014C013C012C030
S113002011C010C00FC00EC00DC00CC00BC00AC060
S113003009C008C011241FBECFEFD2E0DEBFCDBF80
S11300402ED004C3DDCFECE7F0E0808181648083AF
S113005087E880937A00EEE7F0E080818260808315
S11300600895EAE7F0E0808180648083808184FFE2
S1130070FDCF80917800909179008436910538F015
S1130080893E23E0920728F088EE93E002C084E6DC
S113009090E0EAE7F0E020812061208308958FEF6B
S11300A084B917B81AB88BB915B8CDDFE0E8F0E019
S11300B0808180648083E1E8F0E0808188608083CF
S11300C008E810E0C1E8D0E0CCDFBC012FEF84E306
S11300D09CE0215080409040E1F700C0000099B1BD
S11300E0907E903459F1903809F44EC0903261F703
S11300F0F8011182108288818D7F888388818160D4
S11301008883072E000C880B990B5ED120E030E029
S113011048EC52E4C3D09B01AC015CD09B01AC0120
S113012059D09B01AC0160E070E48CE996E4B6D050
S113013086D11CD1F80171836083C6CFF801118286
S1130140108288818E7F8883888182608883072ECD
S1130150000C880B990B38D120E030E048EC52E4D5
S11301609DD09B01AC0136D09B01AC0133D09B01E7
S1130170AC0160E070E583EC96E490D060D1F6D0F9
S1130180F80171836083A0CFF80111821082888105
S113019083608883072E000C880B990B15D120E00F
S11301A030E048EC52E47AD020E030E040EA51E418
S11301B0EAD19B01AC010ED09B01AC0160E876E969
S11301C088E998E46BD03BD1D1D0F8017183608386
S11301D07BCF5058BB27AA270ED084C175D130F0ED
S11301E07AD120F031F49F3F11F41EF46AC10EF469
S11301F0E095E7FB37C1E92F86D180F3BA17620790
S113020073078407950718F071F49EF5B5C10EF4D1
S1130210E0950B2EBA2FA02D0B01B90190010C0112
S1130220CA01A0011124FF27591B99F0593F50F42A
S1130230503E68F11A16F040A22F232F342F442782
S1130240585FF3CF469537952795A795F04053957A
S1130250C9F77EF41F16BA0B620B730B840BBAF04A
S11302609150A1F0FF0FBB1F661F771F881FC2F7B5
S11302700EC0BA0F621F731F841F48F487957795C9
S11302806795B795F7959E3F08F0B3CF9395880F80
S113029008F09927EE0F9795879508950CD022C101
S11302A01AD140F011D130F021F45F3F19F0DAC0D7
S11302B0511163C106C127D198F39923C9F355237A
S11302C0B1F3951B550BBB27AA2762177307840745
S11302D038F09F5F5F4F220F331F441FAA1FA9F3FB
S11302E033D00E2E3AF0E0E830D091505040E695ED
S11302F0001CCAF729D0FE2F27D0660F771F881F4E
S1130300BB1F261737074807AB07B0E809F0BB0B3C
S1130310802DBF01FF2793585F4F2AF09E3F510560
S113032068F0A0C02AC15F3FECF3983EDCF38695E9
S113033077956795B795F7959F5FC9F7880F911DD6
S11303409695879597F90895E1E0660F771F881FC2
S1130350BB1F621773078407BA0720F0621B730B75
S1130360840BBA0BEE1F88F7E0950895D4D088F07B
S11303709F5790F0B92F9927B751A0F0D1F0660F8D
S1130380771F881F991F1AF0BA95C9F712C0B130A8
S113039081F0F2D0B1E00895EFC0672F782F88275D
S11303A0B85F39F0B93FCCF3869577956795B395E7
S11303B0D9F73EF490958095709561957F4F8F4F56
S11303C09F4F0895E89409C097FB3EF4909580955B
S11303D0709561957F4F8F4F9F4F9923A9F0F92F07
S11303E096E9BB279395F695879577956795B79585
S11303F0F111F8CFFAF4BB0F11F460FF1BC06F5F6B
S11304007F4F8F4F9F4F16C0882311F096E911C07C
S1130410772321F09EE8872F762F05C0662371F09D
S113042096E8862F70E060E02AF09A95660F771FB1
S1130430881FDAF7880F9695879597F9089585D0E0
S113044080F09F3740F491110EF097C060E070E0A7
S113045080E89FEB089526F41B16611D711D811D14
S113046007C021C097F99F6780E870E060E00895B5
S1130470882371F4772321F09850872B762F07C0B7
S1130480662311F499270DC09051862B70E060E02B
S11304902AF09A95660F771F881FDAF7880F9695CA
S11304A0879597F908959F3F31F0915020F48795EF
S11304B077956795B795880F911D9695879597F9C8
S11304C008959FEF80EC089500240A9416161706E9
S11304D018060906089500240A9412161306140631
S11304E005060895092E0394000C11F4882352F094
S11304F0BB0F40F4BF2B11F460FF04C06F5F7F4F4C
S11305008F4F9F4F089557FD9058440F551F59F032
S11305105F3F71F04795880F97FB991F61F09F3FEC
S113052079F087950895121613061406551FF2CF15
S11305304695F1DF08C0161617061806991FF1CF65
S113054086957105610508940895E5DFA0F0BEE77E
S1130550B91788F4BB279F3860F41616B11D672FAE
S1130560782F8827985FF7CF869577956795B11D83
S113057093959639C8F30895E894BB27662777279F
S1130580CB0197F908950BD0ADCF9EDF28F0A3DF00
S113059018F0952309F066CF94CF1124EECFB3DF82
S11305A0A0F3959FD1F3950F50E0551F629FF00182
S11305B0729FBB27F00DB11D639FAA27F00DB11DDB
S11305C0AA1F649F6627B00DA11D661F829F222764
S11305D0B00DA11D621F739FB00DA11D621F839FEB
S11305E0A00D611D221F749F3327A00D611D231FC1
S11305F0849F600D211D822F762F6A2F11249F570F
S113060050408AF0E1F088234AF0EE0FFF1FBB1F31
S1130610661F771F881F91505040A9F79E3F5105D0
S113062070F020CFAACF5F3FECF3983EDCF38695C1
S113063077956795B795F795E7959F5FC1F7FE2B7B
S1130640880F911D9695879597F90895F894FFCF93
S9030000FC
