S01500005350495F6D61737465725F34382E737265636D
S113000019C020C01FC01EC01DC01CC01BC01AC008
S113001019C018C017C016C015C014C013C012C030
S113002011C010C00FC00EC00DC00CC00BC00AC060
S113003009C008C011241FBECFEFD2E0DEBFCDBF80
S113004014D021C0DDCF84B18C6284B924982A9A5B
S11300508CB582658CBD8DB581608DBD08958EBDD6
S11300600DB407FEFDCF8EB50895EDDF2A988CE41C
S1130070F6DF2FE38DE093E0215080409040E1F7DC
S10D008000C00000F4CFF894FFCF95
S9030000FC
