:1000000019C020C01FC01EC01DC01CC01BC01AC00C
:1000100019C018C017C016C015C014C013C012C034
:1000200011C010C00FC00EC00DC00CC00BC00AC064
:1000300009C008C011241FBECFEFD2E0DEBFCDBF84
:100040001AD023C0DDCFE1ECF0E0808188618083AD
:10005000E2ECF0E080818660808381E88093C400D8
:100060001092C5000895E0ECF0E0908195FFFDCF7F
:100070008093C6000895E7DF83E4F5DF87E893E126
:0E0080000197F1F700C00000F7CFF894FFCF12
:00000001FF
